:020000040800F2
:10000000001000201D1F0008FD080008FF08000860
:1000100000000000000000000000000000000000E0
:1000200000000000000000000000000007090008B8
:100030000000000000000000090900080B0900088A
:100040006D1F0008000000006D1F00086D1F0008F4
:100050006D1F0008350500085905000869050008EE
:10006000000000006D1F0008691500082D0300083E
:100070006D1F00086D1F00086D1F000800000000C4
:100080006D1F00086D1F0008000000006D1F0008B4
:100090006D1F00086D1F0008391700086D1F00084C
:1000A0006D1F0008251500081D0300086D1F0008BE
:1000B0006D1F0008000000000000000000000000AC
:1000C00010B5064C2378002B07D1054B002B02D02E
:1000D000044800E000BF0123237010BD6800002029
:1000E00000000000B81F0008044B10B5002B03D01F
:1000F0000349044800E000BF10BDC04600000000F6
:100100006C000020B81F0008002243088B4274D303
:1001100003098B425FD3030A8B4244D3030B8B4208
:1001200028D3030C8B420DD3FF22090212BA030C11
:100130008B4202D31212090265D0030B8B4219D3F2
:1001400000E0090AC30B8B4201D3CB03C01A524112
:10015000830B8B4201D38B03C01A5241430B8B425A
:1001600001D34B03C01A5241030B8B4201D30B0343
:10017000C01A5241C30A8B4201D3CB02C01A52416A
:10018000830A8B4201D38B02C01A5241430A8B422D
:1001900001D34B02C01A5241030A8B4201D30B0216
:1001A000C01A5241CDD2C3098B4201D3CB01C01A30
:1001B000524183098B4201D38B01C01A524143093A
:1001C0008B4201D34B01C01A524103098B4201D328
:1001D0000B01C01A5241C3088B4201D3CB00C01A95
:1001E000524183088B4201D38B00C01A524143080D
:1001F0008B4201D34B00C01A5241411A00D2014632
:10020000524110467047FFE701B5002000F006F8A4
:1002100002BDC0460029F7D076E770477047C04658
:100220000023C25C0133002AFBD1581E7047000036
:1002300010B50D4CA368DB0713D5A3689B0710D43A
:100240000423A2681A420CD1A26808490A40134349
:10025000A360042322681A42FCD02360206C80B281
:1002600010BD00F07DFFF4E700240140E8FFFF7FB0
:1002700073B58020234A80009169234C014391612A
:10028000C0219369214A03400193019B136809042B
:100290000B43F7381360FF3801F0DEFA80220721A4
:1002A0005201E26062691A4D8A4362618022D2057E
:1002B0002261802280215202A262A06809062840A1
:1002C0000143A160A368002BFCDB052001F0C4FA08
:1002D0000122A3682B401343A36023681342FCD080
:1002E000FA25FF260B4CAD00FFF7A2FF0A4B30406A
:1002F0005C43013D4440002DF6D1200001F0B4FAEA
:1003000073BDC04600100240002401400827014090
:10031000E8FFFF7FC59D1C819301000110B50248D5
:1003200000F0EAF810BDC046D01F0008802201216D
:100330000D4B520210B55A600C4A13688B43136080
:100340000B4BC0221800520199681142FCD1802346
:100350008268110019401A42FAD1064A1368002B2C
:1003600001D01160984710BD0000024058000240C3
:10037000003800408400002010B50400FFF750FF53
:100380000100200000F002F810BD0000802270B5CE
:10039000124C060023680D00CB189200934205D33F
:1003A000032323600E4BA3802E23A3718022236896
:1003B0009200E918914203D30A48FFF7DDFF70BDB0
:1003C00009482A001818310001F060FA2368ED1876
:1003D0000023256064192371F1E7C046340700202B
:1003E0002E2E0000DD1F000838070020F0B587B072
:1003F00004000E0001F0DCF925002B78002B0AD157
:10040000291B2000FFF7C2FF3748FFF7B5FF01F0B7
:10041000C1F907B0F0BD6F1C252B63D1391B20003B
:100420000139FFF7B3FF30683B780090AC1C642BB8
:1004300031D008D8582B10D0632B26D02B48252B31
:100440002DD02B482BE0732B29D001AD00221C218D
:10045000AC46782B26D0702BF3D101AA1C231500B3
:1004600001000F27D9403940CFB23037092900DDCC
:100470000737043B17700132191DF1D100231D48C5
:100480002B72FFF779FF280009E001216846FFF78A
:100490007DFF0436B0E701A901F0ABF901A8FFF731
:1004A0006BFFF6E703000F27CB400F251F402B42C1
:1004B0000ED1002910D0002A0ED104390B1DF1D124
:1004C00001AB9A1800230B481370FFF755FFE5E7BF
:1004D000FBB23733092F01DC3B0030336546AB54A8
:1004E0000132EAE73D0088E7FC1F0008F61F00081C
:1004F000F81F0008F31F00080FB407B504A901C9CD
:100500000191FFF773FF03B008BC04B01847000067
:1005100001238340054910B54A691A40934204D12A
:100520004B61034B8000C358984710BD0004014045
:1005300088000020074A10B51368002B02D0002164
:10054000116098470020FFF7E3FF0120FFF7E0FF6D
:1005500010BDC046C800002010B50220FFF7D8FF2C
:100560000320FFF7D5FF10BD10B50424200001348F
:10057000FFF7CEFF102CF9D110BD10B500F0DCFE56
:1005800010BD0000F7B5019380231B0213600E4BD2
:1005900004001E68080031001500FFF7B5FD00904B
:1005A000009B5A1E009200D2F7BD20002A003100A5
:1005B000019B064FB84720002A003100019B034FE2
:1005C000B847A419ECE7C0460C0100200100002048
:1005D000F7B580248027072524020B4E14604118AC
:1005E0003F060194884200D1F7BD037801309C4654
:1005F0006446DB081B022C40234333431360019BFA
:1006000017601360EEE7C0460000071F70B5134C7B
:100610000D00A04204D00A000100200001F036F9CC
:100620000021042000F009FE00211A2000F005FE40
:10063000012120000A4AFFF7CBFF0121042000F02E
:10064000FCFD691E012D03D0054A601CFFF7C0FFA9
:1006500001211A2000F0F1FD70BDC04610010020FC
:100660001800004830B51D009C100F4B85B01C6071
:100670004B1E5B196D46441EA218A8702A711012F9
:100680002B242A22E87002A8028081701A12052108
:100690002C80C2700371FFF7B9FF05216846FFF790
:1006A000B5FF05B030BDC0460C01002010B5074BAA
:1006B000012118701800FFF7A9FF0121042000F0A4
:1006C000BCFD00211A2000F0B8FD10BD1001002073
:1006D00010B55B005200FFF7C5FF2C20FFF7E6FFC7
:1006E00010BD0000102310B5024801210370FFF770
:1006F0008DFF10BD10010020F7B5102000F040FD67
:10070000042000F03DFD112000F03AFD1A2000F019
:1007100037FD0120404200F033FD1B2000F030FD8A
:100720000F2000F02DFD002000F02AFD012000F038
:1007300027FD022000F024FD082000F021FD092003
:1007400000F01EFD0A2000F01BFD0B2000F018FD3C
:100750000C2000F015FD01211A2000F06EFD012192
:10076000042000F06AFD0021102000F066FD002149
:10077000FF2000F09BFD01200021404200F05DFDC4
:1007800001211B2000F059FD01210F2000F055FD33
:100790000021112000F051FD142001F05DF801212D
:1007A000112000F04AFD214801F056F8204C257830
:1007B000002D1DD108221F491F48FFF79DFE6A46E4
:1007C0001E4B684613801E4B02210193FFF71EFF4C
:1007D00001A8C178FF394B1E99410331FFF716FF7D
:1007E000A02229002800F0235200FFF73BFFF7BDAD
:1007F000144E802335706578A71C2C009C43220082
:100800003900701C01F042F86DB2611C3000FFF736
:10081000FDFE3C19002DCADAFA2320789B005843CC
:10082000651C01F019F82C00C1E7C0461027000034
:100830003A200008FF100000FF1F000836080000E3
:10084000B10010FF10010020F7B5B722040000210D
:100850001D48920001F038F83F2700231B4E3278E4
:10086000194DD1100191E158D010890C394029540B
:100870003820D100014050110143E058144D800A46
:10088000384068541F20E158124D89081040394003
:10089000295407210A400199013609020A430E49E9
:1008A0000A430E495A500433402BD8D12D20FFF76C
:1008B000FDFE0B4A80210448FFF78AFE01211A2021
:1008C00000F0BBFCF7BDC046240100202A20000830
:1008D00044010020840100200000071FCC000020FC
:1008E0001800004810B5034B034A8900FFF74AFE81
:1008F00010BDC046CC00002018000048704710B55D
:1009000000F02EFC10BD70477047704701211E4A51
:1009100013680B4313601D4B1D495A681140A022F8
:1009200092030A430F215A60DA6A8A43DA6280220C
:10093000196852040A431A6080229204196811420D
:10094000FCD0F0215A688A435A605A68ED398A43CC
:10095000110002220A430C215A605A680A40082AF0
:10096000FBD15A680B490A405A600B4B0B4A1A607C
:100970000B4B0C4A5A6000229A6005321A601968C3
:10098000013A0A431A6070470020024000100240FA
:10099000FFFFC2FFFFF8FFFF38090020006CDC02F8
:1009A00010E000E07FBB00007FB501201C4B99697F
:1009B000014399619A69024080200092009AD969A6
:1009C00040050143D961DA69024080200192019A11
:1009D00059698002014359615A690240802002929C
:1009E000029A5969C002014359615A690240802044
:1009F0000392039A596900030143596180215A699E
:100A0000C90302400492049A5A690A435A615B6915
:100A10000B400593059BFFF779FF07B000BDC0466B
:100A200000100240044AC1890123914202D1034AC5
:100A300013707047024AFBE7011100000004002018
:100A4000020400200B4B10B51C78002C09D10122A8
:100A50001A70094B0121E05C013400F0ABFB082C5B
:100A6000F7D1064B1B78002B02D00122044B1A70E1
:100A700010BDC04601040020AC2000083C09002045
:100A800002040020F0B5174B06001A7885B0002A42
:100A900006D0002214491A700E23144A00F040F9BF
:100AA000134B1B78002B1AD06C4600252700114BE6
:100AB000E85C00F0E5FB002803D1FF23257063709C
:100AC00002340135082DF2D13A0030000649E31B0B
:100AD00000F026F9002802D00023054A137005B063
:100AE000F0BDC046000400200111000056000020A7
:100AF00002040020AC20000810B50400174AE38966
:100B00001030934226D009D8812B0ED0832B19D0D8
:100B10001B0B012B08D1124A137005E082229201AF
:100B20009342F5D1FFF790FE10BDE38AA28A618A55
:100B3000208AFFF7CDFD01220A4B1A70084B0232C2
:100B40001A70F1E70022074B1A70217B8908FFF722
:100B5000C9FEE9E7207CFFF710FDE5E70120000072
:100B6000030400203C09002070470000F7B5254B26
:100B700006001D78002D40D0012D3FD16B469C1DF5
:100B8000A0232200238020499E3B00F0C9F80028C2
:100B900033D078232200238030001C49763B00F0BC
:100BA000BFF8002829D004238C21237022002B00B9
:100BB0003000490100F0B4F800281ED002232200C2
:100BC000237030002B00124900F0AAF8002814D03E
:100BD00000272B00220030000E49277000F0A0F8FB
:100BE000B8420AD00223220030000B49278000F0CF
:100BF00097F8B84201D0034B1F70F7BD014B013D80
:100C00001D70FAE70304002081110000821100002A
:100C100082100000811000008310000010B5FF203A
:100C2000FFF7ABFC10BD000010B500F066FA002025
:100C3000FFF7A3FCFFF756FD032207490B68934318
:100C40001A00022313430B600423044A11690B4367
:100C5000136130BFFDE7C0460070004000ED00E0CA
:100C600010B50021032000F0E8FA10BD10B50448CB
:100C7000FFF742FC0122034B1A70FFF7F1FF10BD92
:100C8000B42000080404002070B5FFF7E9FF1A4CF7
:100C90001A4D23681A4E002B13D02B78022B05D146
:100CA0000021FC221748297000F00EFE3368002B4B
:100CB00005D02268144B1A600023236070BD23689E
:100CC00033603268114B9A4200D1114B23602B786C
:100CD0000C48012B0DD101332B700E4B2168038082
:100CE000FC220D4B00F0DAFB0121032000F0A5FAF5
:100CF000E4E70A4BF2E7C04608040020140700208E
:100D000018040020180600201C04002020040020E5
:100D10001C050020CD7A0000890C0008CDB3FFFF30
:100D200070B515000A00010006481E0000F096F993
:100D3000041E05D0002D03D03200290000F0A6FDCE
:100D4000200070BD1806002010B50C00097800299D
:100D500006D00021FFF7E4FF002801D00023237014
:100D600010BD0000F7B5734D734C2B78002B1FD0CE
:100D7000002601202E7000F0ACF93100032000F0B5
:100D80005CFA00F015FD00F01BFC6C4B1E606C4B18
:100D900026601E6000F0FEFCFA20800000F05CFD82
:100DA000300000F096F9674B1E60FFF76DFFF7BD4E
:100DB000FFF7DAFEFFF746FE00F00EFC2368009016
:100DC0000191002B3ED1604B1A6859680A4303D148
:100DD0000099019A19605A60009E019F19685A682B
:100DE000761A9741002F02D1584A96420CD90099A1
:100DF000019A19605A6001232B70554B1B78002B08
:100E0000D5D1FFF711FFD2E7524D2B78002BCED072
:100E1000514B9E42CBD900F0CDFA4A4A041E01D074
:100E20001760C4E7136801331360FA2292009342FB
:100E3000BDD92B78002BBAD001004848FFF75CFBE6
:100E40002C70DEE7424B1A78002A01D101321A7069
:100E500000223C4B3F4C1A602378934207D101217A
:100E60003E48FFF749FB01232370FFF7D7FE012619
:100E70000099019A344B19605A600022314B1A6074
:100E80002D4B1C68364B2188994206D0354B994230
:100E90001AD03548FFF730FB2E7000F089FC274B45
:100EA000254C1A68226000221A6000F073FC244B63
:100EB0001B68002B04D12B78002B01D1FFF7E4FE37
:100EC0002368002BD4D172E7637B012B29D0022B3E
:100ED0002BD0002B04D1E389002B01D1234B1E70B2
:100EE000234B1B78002B01D0204B1E70214F3B78E9
:100EF000D8B2002B0FD10C331F4A1C49FFF724FF37
:100F00003000FFF733FE0220FFF7BCFD1B4B9B7840
:100F1000002B00D03E70200000F05AF80028D3D1FA
:100F2000BBE72000FFF7E8FDDAE72000FFF77AFDD6
:100F3000D6E7C04604040020180400201C0400204A
:100F4000080400200C04002010040020404B4C003A
:100F5000060400203D09002050C30000BE20000808
:100F6000CDB30000CD7A0000C620000805040020A3
:100F70003C09002014070020DC200008180600208F
:100F800010B5032000F0FCF80021032000F055F913
:100F9000062000F0F5F80121062000F04EF910BD02
:100FA00010B5074B074A1A60074B084A1A60FFF74B
:100FB000E7FFFFF7A1FB00F005FAFFF765FE10BDA4
:100FC00040090020610C0008440900206D0C000855
:100FD0000322F8B5057B8378E91D040091430020C6
:100FE00099420FDA2A1DA018007BFF280BD1651942
:100FF000697C00208B4205DD8A4204DB1548FFF73F
:101000007BFA0020F8BD0220E2780E008243E270F5
:101010006218107B2700021D8D18AC460C36002587
:10102000A6190C379C4503DD0B48FFF765FAE8E786
:10103000AC4673597B5104356045F9DCFF23A21897
:1010400013732418FC3B0730984341186174012046
:10105000D8E7C046E820000802210008F8B51C00C7
:1010600005000F0016000B0A01D000F079F8330CD0
:1010700001D000F075F82B00AA780C339B182A00D9
:10108000211DFC320020D21A91420CD89E70E4B28D
:10109000360A1C705F70DE70181D032307349C43F2
:1010A000AB78E418AC70F8BD10B50249024800F006
:1010B000A5FA10BDA91000081027000010B51C20CB
:1010C00000F05EF81D2000F05BF81E2000F058F8DC
:1010D00010BD10B501001C2000F0AFF810BD10B518
:1010E00001001D2000F0A9F810BD10B50120FFF788
:1010F000F0FF0020FFF7EDFF10BD10B50120FFF756
:10110000EEFF0020FFF7EBFF10BD10B51E2000F032
:10111000A6F810BD70B5FFF733FFFFF7CFFF00F063
:1011200087FAFFF7A5F8FFF7BFFFFFF739FF00F0D9
:1011300053FA04000D0000F04FFA001BA9410029EA
:1011400002D1064B984205D900F046FA04000D0082
:10115000FFF7DBFFFFF706FEEDE7C046E093040074
:1011600010B50548FFF7C8F900F022FBFFF7CDFFE7
:10117000024800F071FBF9E71F210008A08601007A
:101180007FB5C3B2FF2B13D0002201230592039237
:1011900004920F3202400193934000939023032165
:1011A00000118002DB050291C018694600F0A8FB1F
:1011B00007B000BD30B5C3B204000D0087B0FF2BEF
:1011C00015D018220021684600F07EFB6B1C10D160
:1011D000022304930F220123224093400093902383
:1011E00020118002DB056946C01800F089FB07B0BA
:1011F00030BD012D01D10495ECE7002DFBD0FFF7A8
:10120000AFFFE7E77FB5C3B2FF2B14D00F22012356
:1012100002409340009302230322019304939023FE
:101220000292002200118002DB050591C018694678
:10123000039200F065FB07B000BDC3B2FF2B0BD0DB
:1012400090220311D2059B029B180F2210400E3AE8
:101250008240002901D09A6170479A62FCE790228F
:101260000311D2059B029B180F2210400E3A8240B8
:10127000586901001140090482430A439A6170478A
:10128000C3B2FF2B0ED090220311D2059B029B18F4
:101290000F2210400E3A824018691040801A4342D3
:1012A0005841704701204042FBE7000070B505003F
:1012B00002201E4A0E00D1698AB00143D161D36970
:1012C0000121034001930E30019BFFF79BFF002398
:1012D0002F22174C013D2360A262E562012562695D
:1012E00020002A436261802221680A432260059619
:1012F0008026602276003100029202AA03930493B2
:10130000069307930893099300F008FC0823094A01
:1013100051680B435360236A1E43266223682B43A4
:10132000236063691D4365610AB070BD001002400F
:101330000004004018040040014BD8637047C046C9
:101340000004004080220A4B5201D9680A43DA6047
:10135000DA6808490A40DA608022074B92001A6076
:10136000B82252015A60202259680A435A607047D5
:1013700000100240FFEFFFFF00300140102201216A
:10138000084B5A60F0325A60074A13688B43136067
:10139000064A13688B431360054A3F3113688B4339
:1013A0001360704700000240300002401C00024001
:1013B0000030014090230120DB051B695B09984345
:1013C0007047000080202D4B30B5996940010143E2
:1013D00099619A6989B002400092009A0122596984
:1013E0009020114359615B69022413400193019BD2
:1013F000E0230293DD3B0493002302A9C00505937B
:1014000006920793039400F07BFAFFF79BFF1C49B9
:101410001C480D681C4B05402B430B601B4B1A6886
:1014200010408222920102431A6008220868104389
:1014300008601968C2200C431C60196880000A43C8
:101440001A60042219680A431A60114B11491A588C
:1014500011408022D2030A431A508022D2001A601F
:1014600010301A580C4911408022D2010A431A50F8
:10147000802292041A6009B030BDC04600100240BC
:10148000300002400F80FFFF901000001C0002405F
:1014900000E100E0FFFF00FFFF00FFFFF7B51B4F7B
:1014A0001E003B680D0014000190002B01D0FFF7D7
:1014B00057FE174B17495A683E600A40164E1749A7
:1014C0005A608E60CD604A681548120C120422439F
:1014D0004A60019AC26086604268120C120414438A
:1014E000012244605C6814435C600C6814430C6027
:1014F00001680A430260022259680A435A60402286
:1015000019680A431A60FFF7F0FDF7BD18070020BD
:1015100000300140FF9FFFFF0C3001401C000240E3
:10152000300002400B4B10B599680B4B0B485A68C2
:101530000B4B92B25B689BB2FEF7DEFF094C23684F
:10154000002B01D1FFF70CFEFFF718FF2368984727
:1015500010BDC04600300140300002402621000886
:101560001C0002404409002010B5124CFFF7BDFDDD
:1015700023689B060BD5FFF7B8FDFFF7FFFE0E4A69
:101580001368002B0CD000211160984708E02368F5
:101590005B0605D510236360084B1B68002BF4D154
:1015A00023681B0602D423681B0501D5FFF7D8FD6D
:1015B00010BDC0460000024018070020400900206E
:1015C000002210B5034B1A60FFF7D8FEFFF7BAFEF2
:1015D00010BDC0461807002030B5064A0648516ABB
:1015E00004684568536A9942F9D818000021001927
:1015F000694130BD004801402007002070B50D0052
:10160000040000F0D5F8084B20001D60074B5A6A13
:101610000A2C00DA0A208018032280B25242586352
:101620001A6100F0B7F870BD28070020004801409B
:10163000F0B5364B00241868354B8FB0984203D96B
:101640003449FEF761FD441E01AE14220021300032
:1016500000F03AF98020304AC0029169014391615B
:1016600093692E490340C5200093009B2C4B8000BA
:101670001A581140802212040A431A508022D203C1
:101680001A6000253480274C274B310020007560FC
:10169000B360F560356100F0C7F980222368234903
:1016A00093432360A36801260B407021A360636805
:1016B0000BA88B436360A36829009343A3600223B4
:1016C0005B422361E368743A3343E36000F0FCF863
:1016D000FA23174F31009B0006AA3800099306959C
:1016E000079508950A9500F019FA0422BB692900AC
:1016F0009343BB610223E2680E481343E36023680F
:101700001E432660FFF77AFF0FB0F0BD38090020B6
:101710003F420F0040420F0000100240FFFF00FF59
:1017200000E100E000480140FFFF0000F8BFFFFFBC
:10173000000400408813000070B5134C2369DB07D8
:101740000CD5022380200021104D5B422361400212
:101750002A686B6812184B412A606B6000F028F809
:1017600023699B070BD50022094B1D681A600323D0
:101770005B42236100F00EF8002D03D170BD00F034
:1017800009F8FBE7A847F9E70048014020070020D7
:1017900028070020054A1378013B5BB2002B01DDCE
:1017A000137070470023137062B6FAE72C0700200D
:1017B000044A137801335BB21370012B00D172B667
:1017C0007047C0462C07002010B5041E0ED0FEF74F
:1017D00027FD431EE318A34201D8002010BD227844
:1017E0001978013B21705A700134F4E7012040421E
:1017F000F4E7F0B587B00C1E029029D000250A2727
:10180000C21786184B1E56400593300004953900C8
:1018100001350395FEF7FEFC059B3031595530002C
:1018200039000196FEF770FC019B0600092BECD8ED
:10183000029B002B04DA2D23049D039A0235A35446
:10184000002620006655FFF7BFFF300007B0F0BD4F
:1018500001204042FAE700000C2310B55843014B29
:10186000984710BD51000020054B06491A6810B575
:101870005143414004481960FEF73EFE10BDC0468A
:1018800030070020930100013E21000830B5032AF3
:1018900011D904000C43032523002B402C420AD10C
:1018A0009408A400CD58C5500433A342FAD1C018FF
:1018B000C91803231A4000239A4200D130BDCC5CE2
:1018C000C4540133F8E7000070B5032A0CD90600B0
:1018D000830709D193081C00084D4D43013C08D2F1
:1018E0009B00C01803231A4003001218934202D130
:1018F00070BD20C6F2E719700133F7E7010101015D
:101900009023F7B5DB0504000D0098420DD0414B44
:1019100098420AD0404B984207D0404B984204D09E
:101920003F4B984201D0FFF71BFC2B683D4A013B1F
:10193000934201D9FFF714FC6B68032B01D9FFF721
:101940000FFC2B69022B01D9FFF70AFC002300933F
:101950002B68009A1800D04000D1FEBD01220099EA
:101960001E008A401640134245D037006B6877430B
:10197000013B012B1AD8AB68012B03D9032B01D0F3
:10198000FFF7EEFB03227A43A3689343AA687A43E6
:101990001343A360EB68012B01D9FFF7E1FB2A6831
:1019A0006368E96893434A431343636003217943BF
:1019B000CB4301932B69E2687B438A431343E36083
:1019C0006B68022B10D16B69072B01D9FFF7C8FB9D
:1019D0006A69FF2E12D83B000F217B4359435A43BB
:1019E000266A8E43164326626A6823685743019A23
:1019F00013401F432760009B0133A8E70F21360ADD
:101A00007643764371435643636A8B431E43666253
:101A1000EAE7C0460004004800080048000C0048FF
:101A200000140048FEFF000070B5334E04000D00A6
:101A3000B04213D0314B984210D0314B98420DD068
:101A4000304B98420AD0304B984207D02F4B9842E7
:101A500004D02F4B984201D0FFF782FB6B68102215
:101A60001900914307D0402B05D040229343202BEF
:101A700001D0FFF775FBEB68264A134205D08022A0
:101A80009200934201D0FFF76BFB2368B44202D06F
:101A90001A4A944208D1702293436A681343B442AD
:101AA0000ED0164A94420BD0164A944208D0164AD9
:101AB000944205D0154A944202D0154A944203D16B
:101AC000154A1340EA6813432360AB68E3622B882E
:101AD000A362B44208D00C4B9C4205D00B4B9C42F5
:101AE00002D00B4B9C4201D12B6923630123626915
:101AF00000201343636170BD002C014000040040CE
:101B0000001000400020004000400140004401401F
:101B100000480140FFFEFFFFFFFCFFFF8023F7B5F9
:101B20005B0004001500994200D171E106D801293B
:101B300066D0102900D1DBE00120FEBD80235B01CF
:101B40009942F9D1A44FB84204D0A44B984201D095
:101B5000FFF706FB30232A689A4303D0402A01D0BE
:101B6000FFF7FEFA6B68012B01D9FFF7F9FA02269D
:101B70002B69B34301D0FFF7F3FA6B69B34301D08C
:101B8000FFF7EEFAAB68012B01D9FFF7E9FA236AF8
:101B9000934994480B402362236A6668E2690240D5
:101BA000286800021043904A00901A402B691B03DA
:101BB00013436A680B4012031A430192BC4208D0D7
:101BC0008A4B9C4205D08A4B9C4202D0894B9C4256
:101BD0000FD1894FEB693B4201D0FFF7C1FAAB69E6
:101BE0003B4201D0FFF7BCFA844B1E40AB699B011E
:101BF0001E43009B6660E361EB682364019B75E014
:101C0000754EB04210D0754B98420DD07C4B984227
:101C10000AD0764B984207D0754B984204D0754B4A
:101C2000984201D0FFF79CFA30232A689A4303D0E8
:101C3000402A01D0FFF794FA6B68012B01D9FFF716
:101C40008FFA02232A699A4301D0FFF789FAAB6819
:101C5000012B01D9FFF784FA02236A699A4301D064
:101C6000FFF77EFA01217320236A8B432362236AE4
:101C70006768A269824328681043022293432A6955
:101C8000019013436A688B431A430092B44208D010
:101C9000564B9C4205D0564B9C4202D0554B9C4221
:101CA0001ED1554EEB69334201D0FFF759FAAB69AB
:101CB000334201D0FFF754FA0823009A3E409A437A
:101CC0006B69504F9B00134304229343AA68920010
:101CD0001A43AB6900921E43EB693E405F003743F5
:101CE000019B6760A361EB686363009B2362FDE077
:101CF000394FB84207D0394B984204D03B4B9842F9
:101D000001D0FFF72DFA30232A689A4303D0402AE6
:101D100001D0FFF725FA6B68012B01D9FFF720FAF4
:101D200002232A699A4301D0FFF71AFAAB68012B04
:101D300001D9FFF715FA02236A699A4301D0FFF728
:101D40000FFA1021236A27488B432362236A6668AF
:101D5000A2690240286800021043202293431A001F
:101D60002B6901901B0113436A688B4312011A43CC
:101D70000092BC4208D01D4B9C4205D01C4B9C429B
:101D800002D01C4B9C4220D11B4FEB693B4201D03F
:101D9000FFF7E6F9AB693B4201D0FFF7E1F9802399
:101DA000009A9A436B699B01134340229343AA68AC
:101DB00092011A430092144BAA69334096001E43C5
:101DC000124B1E40EB69DB001E43019B6660A36162
:101DD000EB68A36389E7C046002C01400004004083
:101DE000FFEFFFFFFF8CFFFFFFDFFFFF0040014021
:101DF0000044014000480140FFFEFFFFFFBFFFFF1E
:101E000000200040FFFDFFFFFFFBFFFFFFF7FFFF8C
:101E1000374B984204D0374B984201D0FFF7A0F9D6
:101E200030232A689A4303D0402A01D0FFF798F95B
:101E30006B68012B01D9FFF793F902232A699A43B2
:101E400001D0FFF78DF9AB68012B01D9FFF788F9B5
:101E500002236A699A4301D0FFF782F97321226A4B
:101E6000254B1A402262266A6768E26900938A431A
:101E7000296811430191214A296932400E02164313
:101E80006A681E401A4B120216439C4208D01C4B33
:101E90009C4205D01B4B9C4202D01B4B9C421FD145
:101EA000EB69009A134201D0FFF75AF9AB69009A27
:101EB000134201D0FFF754F96A69144B334096027C
:101EC0001E43134BAA691E40AB689B021E43114B75
:101ED0003B4017011F43104B1F40EB695B011F4341
:101EE000019B6760E361EB68E3632662002024E600
:101EF000002C014000040040FFFEFFFFFFFDFFFF3C
:101F0000004001400044014000480140FFF7FFFF4E
:101F1000FFFBFFFFFFEFFFFFFFDFFFFF0D488546E1
:101F2000002103E00C4B5B58435004310B480C4B31
:101F300042189A42F6D30B4A02E00023136004329F
:101F4000094B9A42F9D3FEF72FFD00F011F8FFF785
:101F5000E1F8FEE7001000205821000800000020F2
:101F6000640000206800002048090020FEE700000F
:101F700070B500260C4D0D4C641BA410A64209D16F
:101F8000002600F019F80A4D0A4C641BA410A64262
:101F900005D170BDB300EB5898470136EEE7B300AA
:101FA000EB5898470136F2E750210008502100080D
:101FB0005021000854210008F8B5C046F8BC08BC00
:101FC0009E467047F8B5C046F8BC08BC9E467047B0
:101FD0005350492068616E646C65722100444D4520
:101FE0005347206C696E6520746F6F206C6F6E674D
:101FF000210A0030780025003F3F3F000D0A0063B2
:102000006F6E6669677572652073637265656E3A97
:102010002046524D435452313D2570204D4144439A
:10202000544C3D257020535049000009121B2128B3
:10203000333A424B5059636A7178EF03038002CF01
:102040000300C130ED0464031281E803850078CBFE
:1020500005392C003402F70120EA020000C00123F8
:10206000C10110C5023E28C70186360108370100AC
:102070003A0155B1020018B603088227F201002682
:102080000101E00F0F312B0C0E084EF13707100342
:102090000E0900E10F000E1403110731C148080FAB
:1020A0000C31360F1180782980780000FF15131449
:1020B00016505117535049206572726F7200636F4A
:1020C0006E6E202564006D61676963206D69736DB4
:1020D000617463683A202578000000000000000069
:1020E000E536FA166EA0EA1D696E76616C696420A9
:1020F00073757065722D6672616D6520256420258B
:102100006400696E76616C69642073757065722D08
:102110006672616D65202564202564202564005069
:10212000414E494321005350492D532068616E644C
:102130006C6572212025782025642F25640072614A
:102140006E646F6D20736565642025780000000063
:04215000E90000089A
:04215400C1000008BE
:10215800F7B5802480250F274118019124062D0208
:102168000199884200D1F7BD067801303100394025
:102178008900C95836091160B600146015601460EA
:1021880015601460156014601560F65816601460C8
:102198001560146015601460156014601560DFE741
:1021A8000138FDD17047010002000300040005005A
:0421B8000600070016
:0400000508001F1DB3
:00000001FF
